:020000040000FA
:06000000A7EF00F0120062
:020006000000F8
:08000800060EF66E000EF76E05
:10001000000EF86E00010900F550656F0900F550FB
:10002000666F03E1656701D03DD00900F550606F50
:100030000900F550616F0900F550626F0900090071
:10004000F550E96E0900F550EA6E09000900090053
:10005000F550636F0900F550646F09000900F6CF91
:1000600067F0F7CF68F0F8CF69F060C0F6FF61C0C5
:10007000F7FF62C0F8FF0001635302E1645307E039
:100080000900F550EE6E6307F8E26407F9D767C020
:10009000F6FF68C0F7FF69C0F8FF00016507000EB2
:0600A000665BBFD71200F1
:0A00A600D9CFE6FFE1CFD9FF040E29
:1000B000E126DE6ADD6ADECF02F0DDCF03F0D89004
:1000C000035004E6880E025C130E03581DE2020E74
:1000D000DB6A030EDB6A020EDBCF02F0030EDBCF1E
:1000E00003F0D890035004E6020E025C000E0358A1
:1000F00006E2020EDB2A030E01E3DB2AECD7DF2A3D
:10010000010E01E3DB2AD7D7040EE15C02E2E16ACB
:10011000E552E16EE552E7CFD9FF1200936A8A807B
:0E0120008A82C1DF8A908A92BEDFF9D7120070
:02012E00000EC1
:10013000F36E00EE00F0080E01D81200EA6002D063
:0E014000EE6AFCD7F350E9601200EE6AFCD7BD
:02014E0013EEAE
:1001500000F023EE00F0F86A019C04EC00F0B5EC2E
:0A01600000F08EEC00F0FBD7120057
:02016A00120081
:020000040030CA
:0100000024DB
:0100010008F6
:010002001FDE
:010003001EDE
:01000900C036
:00000001FF
