:020000040000FA
:04000000F8EF07F01E
:1008000000009484000E956E000E836E82B40BEF90
:1008100004F00DEF04F047EF04F00B500C10D8A4D7
:1008200014EF04F016EF04F047EF04F009500A103B
:10083000D8A41DEF04F01FEF04F047EF04F00750B9
:100840000810D8A426EF04F028EF04F047EF04F0D6
:1008500005500610D8A42FEF04F031EF04F047EF55
:1008600004F003500410D8A438EF04F03AEF04F079
:1008700047EF04F001500210D8A441EF04F043EF19
:1008800004F047EF04F0000E836E06EF04F082A43C
:100890004CEF04F04EEF04F090EF04F00B500C100E
:1008A000D8A455EF04F057EF04F090EF04F009508E
:1008B0000A10D8A45EEF04F060EF04F090EF04F0AB
:1008C00007500810D8A467EF04F069EF04F090EF28
:1008D00004F005500610D8A470EF04F072EF04F095
:1008E00090EF04F003500410D8A479EF04F07BEFEC
:1008F00004F090EF04F001500210D8A482EF04F04D
:1009000084EF04F090EF04F0000E836E000E046E8E
:10091000010E036E000E026E010E016E06EF04F072
:1009200082B495EF04F097EF04F0D5EF04F00B508C
:100930000C10D8A49EEF04F0A0EF04F0D5EF04F063
:1009400009500A10D8A4A7EF04F0A9EF04F0D5EFDE
:1009500004F007500810D8A4B0EF04F0B2EF04F090
:10096000D5EF04F005500610D8A4B9EF04F0BBEFA2
:1009700004F0D5EF04F003040410D8A4C2EF04F08F
:10098000C4EF04F0D5EF04F001040210D8A4CBEFBB
:1009900004F0CDEF04F0D5EF04F04CEC07F0000EBE
:1009A000066E010E056E06EF04F082B4DAEF04F075
:1009B000DCEF04F016EF05F00B500C10D8A4E3EFB9
:1009C00004F0E5EF04F016EF05F009500A10D8A482
:1009D000ECEF04F0EEEF04F016EF05F0075008100E
:1009E000D8A4F5EF04F0F7EF04F016EF05F00504D6
:1009F0000610D8A4FEEF04F000EF05F016EF05F0A6
:100A000003040410D8A407EF05F009EF05F016EF72
:100A100005F001040210D8A410EF05F012EF05F064
:100A200016EF05F04CEC07F006EF04F082A41BEF84
:100A300005F01DEF05F05BEF05F00B500C10D8A48E
:100A400024EF05F026EF05F05BEF05F009500A10E2
:100A5000D8A42DEF05F02FEF05F05BEF05F0075060
:100A60000810D8A436EF05F038EF05F05BEF05F07D
:100A700005040610D8A43FEF05F041EF05F05BEF49
:100A800005F003040410D8A448EF05F04AEF05F080
:100A90005BEF05F001040210D8A451EF05F053EF0D
:100AA00005F05BEF05F0000E836E000E086E010E80
:100AB000076E06EF04F082B460EF05F062EF05F018
:100AC000A0EF05F00B500C10D8A469EF05F06BEF08
:100AD00005F0A0EF05F009500A10D8A472EF05F058
:100AE00074EF05F0A0EF05F007040810D8A47BEF21
:100AF00005F07DEF05F0A0EF05F005040610D8A481
:100B000084EF05F086EF05F0A0EF05F00304041074
:100B1000D8A48DEF05F08FEF05F0A0EF05F00104EC
:100B20000210D8A496EF05F098EF05F0A0EF05F0BD
:100B3000A7EC07F0000E0A6E010E096E06EF04F036
:100B400082B4A5EF05F0A7EF05F0E1EF05F00B503B
:100B50000C10D8A4AEEF05F0B0EF05F0E1EF05F012
:100B600009040A10D8A4B7EF05F0B9EF05F0E1EFDA
:100B700005F007040810D8A4C0EF05F0C2EF05F097
:100B8000E1EF05F005040610D8A4C9EF05F0CBEF9E
:100B900005F0E1EF05F003040410D8A4D2EF05F04E
:100BA000D4EF05F0E1EF05F001040210D8A4DBEF6B
:100BB00005F0DDEF05F0E1EF05F0A7EC07F006EF3B
:100BC00004F082A4E6EF05F0E8EF05F026EF06F06A
:100BD0000B500C10D8A4EFEF05F0F1EF05F026EF65
:100BE00006F009040A10D8A4F8EF05F0FAEF05F0B2
:100BF00026EF06F007040810D8A401EF06F003EF73
:100C000006F026EF06F005040610D8A40AEF06F059
:100C10000CEF06F026EF06F003040410D8A413EF3F
:100C200006F015EF06F026EF06F001040210D8A436
:100C30001CEF06F01EEF06F026EF06F0000E836EA6
:100C4000000E0C6E010E0B6E06EF04F082B42BEF5B
:100C500006F02DEF06F06AEF06F00B040C10D8A496
:100C600034EF06F036EF06F06AEF06F009040A10DA
:100C7000D8A43DEF06F03FEF06F06AEF06F0070458
:100C80000810D8A446EF06F048EF06F06AEF06F029
:100C900005040610D8A44FEF06F051EF06F06AEFF6
:100CA00006F003040410D8A458EF06F05AEF06F03B
:100CB0006AEF06F001040210D8A461EF06F063EFBA
:100CC00006F06AEF06F08368000E0A6E000E096EE9
:100CD00006EF04F082B46FEF06F071EF06F0AAEFB2
:100CE00006F00B040C10D8A478EF06F07AEF06F0AB
:100CF000AAEF06F009500A10D8A481EF06F083EF9E
:100D000006F0AAEF06F007040810D8A48AEF06F050
:100D10008CEF06F0AAEF06F005040610D8A493EFB6
:100D200006F095EF06F0AAEF06F003040410D8A42D
:100D30009CEF06F09EEF06F0AAEF06F00104021009
:100D4000D8A4A5EF06F0A7EF06F0AAEF06F0836897
:100D500006EF04F082A4AFEF06F0B1EF06F003EF68
:100D600007F00B040C10D8A4B8EF06F0BAEF06F0A9
:100D700003EF07F009500A10D8A4C1EF06F0C3EF43
:100D800006F003EF07F007040810D8A4CAEF06F036
:100D9000CCEF06F003EF07F005040610D8A4D3EF5C
:100DA00006F0D5EF06F003EF07F003040410D8A413
:100DB000DCEF06F0DEEF06F003EF07F001040210AF
:100DC000D8A4E5EF06F0E7EF06F003EF07F0000E1A
:100DD000836E000E0C6E000E0B6E000E0A6E000E7F
:100DE000096E000E086E000E076E000E066E000EF5
:100DF000056E000E046E000E036E000E026E010EF4
:100E0000016E06EF04F082B408EF07F00AEF07F076
:100E100048EF07F00B500C10D8A411EF07F013EFB8
:100E200007F048EF07F009500A10D8A41AEF07F0AE
:100E30001CEF07F048EF07F007500810D8A423EF85
:100E400007F025EF07F048EF07F005500610D8A48B
:100E50002CEF07F02EEF07F048EF07F003500410D7
:100E6000D8A435EF07F037EF07F048EF07F001049B
:100E70000210D8A43EEF07F040EF07F048EF07F06C
:100E8000000E836E000E026E000E016E06EF04F07F
:100E900006EF04F000EF00F0010E836E210E0D6EE0
:100EA000760EE82EFED70D2EFCD700D0020E836EF4
:100EB000210E0D6E760EE82EFED70D2EFCD700D03B
:100EC000040E836E210E0D6E760EE82EFED70D2ECB
:100ED000FCD700D0080E836E210E0D6E760EE82E24
:100EE000FED70D2EFCD700D0100E836E210E0D6E96
:100EF000760EE82EFED70D2EFCD700D0200E836E86
:100F0000210E0D6E760EE82EFED70D2EFCD700D0EA
:100F1000400E836E210E0D6E760EE82EFED70D2E3E
:100F2000FCD700D0800E836E210E0D6E760EE82E5B
:100F3000FED70D2EFCD700D0000E836E210E0D6E55
:100F4000760EE82EFED70D2EFCD700D01200800EB4
:100F5000836E210E0D6E760EE82EFED70D2EFCD779
:100F600000D0400E836E210E0D6E760EE82EFED759
:100F70000D2EFCD700D0200E836E210E0D6E760E46
:100F8000E82EFED70D2EFCD700D0100E836E210E5A
:100F90000D6E760EE82EFED70D2EFCD700D0080E73
:100FA000836E210E0D6E760EE82EFED70D2EFCD729
:100FB00000D0040E836E210E0D6E760EE82EFED745
:100FC0000D2EFCD700D0020E836E210E0D6E760E14
:100FD000E82EFED70D2EFCD700D0010E836E210E19
:100FE0000D6E760EE82EFED70D2EFCD700D0120027
:100FF00000EE01F00C0EEE6AE806FDE1000101EFE3
:0210000004F0FA
:020000040020DA
:08000000FFFFFFFFFFFFFFFF00
:020000040030CA
:0E0000000008191EFF8181FF0FC00FE00F40A6
:00000001FF
