:020000040000FA
:0400000026EF07F0F0
:1008000000009484000E956E000E836E82B40BEF90
:1008100004F00DEF04F047EF04F00B500C10D8A4D7
:1008200014EF04F016EF04F047EF04F009500A103B
:10083000D8A41DEF04F01FEF04F047EF04F00750B9
:100840000810D8A426EF04F028EF04F047EF04F0D6
:1008500005500610D8A42FEF04F031EF04F047EF55
:1008600004F003500410D8A438EF04F03AEF04F079
:1008700047EF04F001500210D8A441EF04F043EF19
:1008800004F047EF04F0000E836E06EF04F082A43C
:100890004CEF04F04EEF04F090EF04F00B500C100E
:1008A000D8A455EF04F057EF04F090EF04F009508E
:1008B0000A10D8A45EEF04F060EF04F090EF04F0AB
:1008C00007500810D8A467EF04F069EF04F090EF28
:1008D00004F005500610D8A470EF04F072EF04F095
:1008E00090EF04F003500410D8A479EF04F07BEFEC
:1008F00004F090EF04F001500210D8A482EF04F04D
:1009000084EF04F090EF04F0D5EC06F0000E066ED4
:10091000010E056E000E046E010E036E06EF04F06C
:1009200082B495EF04F097EF04F0D5EF04F00B508C
:100930000C10D8A49EEF04F0A0EF04F0D5EF04F063
:1009400009500A10D8A4A7EF04F0A9EF04F0D5EFDE
:1009500004F007500810D8A4B0EF04F0B2EF04F090
:10096000D5EF04F005040610D8A4B9EF04F0BBEFEE
:1009700004F0D5EF04F003040410D8A4C2EF04F08F
:10098000C4EF04F0D5EF04F001500210D8A4CBEF6F
:1009900004F0CDEF04F0D5EF04F0000E836E000EEE
:1009A0000C6E010E0B6E06EF04F082A4DAEF04F079
:1009B000DCEF04F01EEF05F00B040C10D8A4E3EFFD
:1009C00004F0E5EF04F01EEF05F009500A10D8A47A
:1009D000ECEF04F0EEEF04F01EEF05F00750081006
:1009E000D8A4F5EF04F0F7EF04F01EEF05F00504CE
:1009F0000610D8A4FEEF04F000EF05F01EEF05F09E
:100A000003040410D8A407EF05F009EF05F01EEF6A
:100A100005F001500210D8A410EF05F012EF05F018
:100A20001EEF05F084EC06F0000E086E010E076E56
:100A3000000E0C6E000E0B6E06EF04F082B423EF76
:100A400005F025EF05F05DEF05F00B500C10D8A474
:100A50002CEF05F02EEF05F05DEF05F009500A10C0
:100A6000D8A435EF05F037EF05F05DEF05F007048A
:100A70000810D8A43EEF05F040EF05F05DEF05F05B
:100A800005040610D8A447EF05F049EF05F05DEF27
:100A900005F003040410D8A450EF05F052EF05F060
:100AA0005DEF05F001500210D8A459EF05F05BEF9F
:100AB00005F05DEF05F0CDEF04F082A462EF05F0E4
:100AC00064EF05F0A1EF05F00B040C10D8A46BEF58
:100AD00005F06DEF05F0A1EF05F009500A10D8A45C
:100AE00074EF05F076EF05F0A1EF05F007040810AC
:100AF000D8A47DEF05F07FEF05F0A1EF05F0050428
:100B00000610D8A486EF05F088EF05F0A1EF05F0F8
:100B100003040410D8A48FEF05F091EF05F0A1EFC6
:100B200005F001500210D8A498EF05F09AEF05F0F7
:100B3000A1EF05F08368000E0A6E010E096E06EF44
:100B400004F082B4A6EF05F0A8EF05F0E6EF05F09B
:100B50000B040C10D8A4AFEF05F0B1EF05F0E6EFF1
:100B600005F009040A10D8A4B8EF05F0BAEF05F0B3
:100B7000E6EF05F007040810D8A4C1EF05F0C3EFB5
:100B800005F0E6EF05F005040610D8A4CAEF05F05D
:100B9000CCEF05F0E6EF05F003040410D8A4D3EF82
:100BA00005F0D5EF05F0E6EF05F001500210D8A4EE
:100BB000DCEF05F0DEEF05F0E6EF05F0000E836EEA
:100BC000000E026E010E016E06EF04F082A4EBEF40
:100BD00005F0EDEF05F02BEF06F00B040C10D8A498
:100BE000F4EF05F0F6EF05F02BEF06F009040A101C
:100BF000D8A4FDEF05F0FFEF05F02BEF06F007049A
:100C00000810D8A406EF06F008EF06F02BEF06F068
:100C100005040610D8A40FEF06F011EF06F02BEF35
:100C200006F003040410D8A418EF06F01AEF06F03B
:100C30002BEF06F001040210D8A421EF06F023EFF9
:100C400006F02BEF06F0000E836E000E0C6E000E09
:100C50000B6E06EF04F082B430EF06F032EF06F0D0
:100C600080EF06F00B500C10D8A439EF06F03BEFE4
:100C700006F080EF06F009040A10D8A442EF06F04F
:100C800044EF06F080EF06F007040810D8A44BEFFD
:100C900006F04DEF06F080EF06F005040610D8A42C
:100CA00054EF06F056EF06F080EF06F00304041050
:100CB000D8A45DEF06F05FEF06F080EF06F00104C8
:100CC0000210D8A466EF06F068EF06F080EF06F099
:100CD000000E836E000E0A6E000E096E000E086E86
:100CE000000E076E000E066E000E056E000E046EFE
:100CF000000E036E000E026E000E016E06EF04F091
:100D000006EF04F000EF00F0800E836E210E0D6EF2
:100D1000760EE82EFED70D2EFCD700D0400E836E47
:100D2000210E0D6E760EE82EFED70D2EFCD700D0CC
:100D3000200E836E210E0D6E760EE82EFED70D2E40
:100D4000FCD700D0100E836E210E0D6E760EE82EAD
:100D5000FED70D2EFCD700D0080E836E210E0D6E2F
:100D6000760EE82EFED70D2EFCD700D0040E836E33
:100D7000210E0D6E760EE82EFED70D2EFCD700D07C
:100D8000020E836E210E0D6E760EE82EFED70D2E0E
:100D9000FCD700D0010E836E210E0D6E760EE82E6C
:100DA000FED70D2EFCD700D01200010E836E210E4F
:100DB0000D6E760EE82EFED70D2EFCD700D0020E5B
:100DC000836E210E0D6E760EE82EFED70D2EFCD70B
:100DD00000D0040E836E210E0D6E760EE82EFED727
:100DE0000D2EFCD700D0080E836E210E0D6E760EF0
:100DF000E82EFED70D2EFCD700D0100E836E210EEC
:100E00000D6E760EE82EFED70D2EFCD700D0200EEC
:100E1000836E210E0D6E760EE82EFED70D2EFCD7BA
:100E200000D0400E836E210E0D6E760EE82EFED79A
:100E30000D2EFCD700D0800E836E210E0D6E760E27
:100E4000E82EFED70D2EFCD700D0120000EE01F0E8
:0E0E50000C0EEE6AE806FDE1000101EF04F071
:020000040020DA
:08000000FFFFFFFFFFFFFFFF00
:020000040030CA
:0E0000000008191EFF8181FF0FC00FE00F40A6
:00000001FF
