:020000040000FA
:060000000A128A11F02F24
:1009AA0080308312031388002130FD007630FC006A
:1009BA00FC0BDD2CFD0BDD2C0000403083120313F1
:1009CA0088002130FD007630FC00FC0BEA2CFD0B80
:1009DA00EA2C000020308312031388002130FD0026
:1009EA007630FC00FC0BF72CFD0BF72C00001030C6
:1009FA008312031388002130FD007630FC00FC0BC3
:100A0A00042DFD0B042D0000083083120313880007
:100A1A002130FD007630FC00FC0B112DFD0B112D51
:100A2A00000004308312031388002130FD00763061
:100A3A00FC00FC0B1E2DFD0B1E2D00000230831244
:100A4A00031388002130FD007630FC00FC0B2B2DAF
:100A5A00FD0B2B2D00000130831203138800213077
:100A6A00FD007630FC00FC0B382DFD0B382D000004
:100A7A00080001308312031388002130FD0076300C
:100A8A00FC00FC0B462DFD0B462D000002308312A4
:100A9A00031388002130FD007630FC00FC0B532D37
:100AAA00FD0B532D000004308312031388002130FC
:100ABA00FD007630FC00FC0B602DFD0B602D000064
:100ACA0008308312031388002130FD007630FC00C1
:100ADA00FC0B6D2DFD0B6D2D0000103083120313DE
:100AEA0088002130FD007630FC00FC0B7A2DFD0BCE
:100AFA007A2D000020308312031388002130FD0074
:100B0A007630FC00FC0B872DFD0B872D0000403052
:100B1A008312031388002130FD007630FC00FC0BA1
:100B2A00942DFD0B942D000080308312031388004E
:100B3A002130FD007630FC00FC0BA12DFD0BA12D10
:100B4A0000008312031388012130FD007630FC0077
:100B5A00FC0BAD2DFD0BAD2D000008008316031311
:100B6A0007158801831203138801831203130719D7
:100B7A00BF2DC02DE62D7A087B04031DC52DC62D79
:100B8A00E62D78087904031DCB2DCC2DE62D7608A9
:100B9A007704031DD12DD22DE62D74087504031D8B
:100BAA00D72DD82DE62D72087304031DDD2DDE2DF9
:100BBA00E62D70087104031DE32DE42DE62D88014E
:100BCA00BA2D071DE92DEA2D182E7A087B04031D7C
:100BDA00EF2DF02D182E78087904031DF52DF62D2A
:100BEA00182E76087704031DFB2DFC2D182E740889
:100BFA007504031D012E022E182E72087304031D9C
:100C0A00072E082E182E70087104031D0D2E0E2EA5
:100C1A00182E88010130F2000030F3000130F00094
:100C2A000030F100BA2D07191B2E1C2E4A2E7A0805
:100C3A007B04031D212E222E4A2E78087904031DD7
:100C4A00272E282E4A2E76087704031D2D2E2E2EA7
:100C5A004A2E74087504031D332E342E4A2E72034D
:100C6A007304031D392E3A2E4A2E70037104031D94
:100C7A003F2E402E4A2E0A128A113E250A128A1146
:100C8A000130F4000030F500BA2D07194D2E4E2E12
:100C9A00782E7A087B04031D532E542E782E78085A
:100CAA007904031D592E5A2E782E76087704031DCF
:100CBA005F2E602E782E74037504031D652E662E32
:100CCA00782E72037304031D6B2E6C2E782E70031C
:100CDA007104031D712E722E782E0A128A113E2576
:100CEA000A128A11BA2D071D7B2E7C2EA62E7A088F
:100CFA007B04031D812E822EA62E78087904031DFB
:100D0A00872E882EA62E76087704031D8D2E8E2E0A
:100D1A00A62E74037504031D932E942EA62E720319
:100D2A007304031D992E9A2EA62E70037104031DB7
:100D3A009F2EA02EA62E88010130F6000030F70063
:100D4A00BA2D0719A92EAA2ED82E7A087B04031DBC
:100D5A00AF2EB02ED82E78087904031DB52EB62EE4
:100D6A00D82E76037704031DBB2EBC2ED82E74030F
:100D7A007504031DC12EC22ED82E72037304031DDF
:100D8A00C72EC82ED82E70037104031DCD2ECE2E69
:100D9A00D82E0A128A11D5240A128A110130F800B3
:100DAA000030F900BA2D0719DB2EDC2E062F7A083F
:100DBA007B04031DE12EE22E062F78037904031D1E
:100DCA00E72EE82E062F76037704031DED2EEE2E6E
:100DDA00062F74037504031DF32EF42E062F7203D7
:100DEA007304031DF92EFA2E062F70037104031DD6
:100DFA00FF2E002F062F0A128A11D5240A128A11F1
:100E0A00BA2D071D092F0A2F342F7A087B04031DD8
:100E1A000F2F102F342F78037904031D152F162F47
:100E2A00342F76037704031D1B2F1C2F342F7403D2
:100E3A007504031D212F222F342F72037304031DFF
:100E4A00272F282F342F70037104031D2D2F2E2FC7
:100E5A00342F88010130FA000030FB00BA2D07193F
:100E6A00372F382F612F7A037B04031D3D2F3E2F26
:100E7A00612F78037904031D432F442F612F7603D2
:100E8A007704031D492F4A2F612F74037504031D2C
:100E9A004F2F502F612F72037304031D552F562FA6
:100EAA00612F70037104031D5B2F5C2F612FFF30CC
:100EBA008800F801F901BA2D0719642F652F8C2FC4
:100ECA007A037B04031D6A2F6B2F8C2F7808790411
:100EDA00031D702F712F8C2F76037704031D762F35
:100EEA00772F8C2F74037504031D7C2F7D2F8C2F75
:100EFA0072037304031D822F832F8C2F70037104D6
:100F0A00031D882F892F8C2FFF308800BA2D071DCB
:100F1A008F2F902FC02F7A037B04031D952F962FB6
:100F2A00C02F78087904031D9B2F9C2FC02F7603AE
:100F3A007704031DA12FA22FC02F74037504031D6C
:100F4A00A72FA82FC02F72037304031DAD2FAE2F36
:100F5A00C02F70037104031DB32FB42FC02F880153
:100F6A00FA01FB01F801F901F601F701F401F501B3
:100F7A00F201F301132E0719C32FC42FEC2F7A089D
:100F8A007B04031DC92FCA2FEC2F78087904031D8F
:100F9A00CF2FD02FEC2F76087704031DD52FD62F0D
:100FAA00EC2F74087504031DDB2FDC2FEC2F72085D
:100FBA007304031DE12FE22FEC2F70037104031D4C
:100FCA00E72FE82FEC2F8801F001F101BA2DBA2D95
:100FDA000A128A110028F001F101F201F301F40169
:100FEA00F501F601F701F801F901FA01FB018301A4
:060FFA000A128A11B32D5A
:02400E00BA3FB7
:00000001FF
