:020000040000FA
:060000009EEF00F012006B
:0A00060001005A0100006A0000002A
:0400100006000000E6
:0C001400060EF66E000EF76E000EF86E81
:1000200000010900F550656F0900F550666F03E1A6
:10003000656701D03DD00900F550606F0900F550AB
:10004000616F0900F550626F09000900F550E96E13
:100050000900F550EA6E090009000900F550636FC8
:100060000900F550646F09000900F6CF67F0F7CF7B
:1000700068F0F8CF69F060C0F6FF61C0F7FF62C0BA
:10008000F8FF0001635302E1645307E00900F550F3
:10009000EE6E6307F8E26407F9D767C0F6FF68C041
:1000A000F7FF69C0F8FF00016507000E665BBFD768
:0200B00012003C
:0E00B200D9CFE6FFE1CFD9FFFE0EDB50AD6ED9
:1000C0009EA8FED79E98E552E7CFD9FF1200200EDA
:1000D000AC6E0C0EAF6EAC8AAB8E0001706B716BA8
:1000E000060E71AF02D0D89003D0705D000E71592A
:1000F00014E26A0E7025E96E000E7121EA6EEFCFF0
:1001000072F0736B72BF736972C0E6FFD2DFE552A3
:0C0110000001702B000E7123E3D71200D9
:04011C00000EF36E70
:1001200000EE00F0080E01D81200EA6002D0EE6A7C
:0C013000FCD7F350E9601200EE6AFCD727
:04013C0013EE00F0CE
:1001400023EE00F0F86A019C0AEC00F0ACEC00F041
:0801500067EC00F0FBD7120080
:02015800120093
:06015A0048656C6C6F00AB
:00000001FF
