:020000040000FA
:100000008316870188018312870188010130B600B9
:10001000071D29281428071D2C281C28071D3128F6
:100020002428071D36283B2840204020B60D3608DE
:100030008800071D0B28082840204020B60C3608F1
:100040008800071D0E280B28FF308800071D112887
:100050000E2888014020082888014020071D2C28F0
:100060000B2888014020071D31280E2888014020D8
:10007000071D3628112888014020071D082811284F
:10008000FF3098004620980B42280800FF30880077
:0A00900000000000880B482808005B
:02400E00B23FBF
:00000001FF
